:100000000C942A000C9447000C9447000C94470071
:100010000C9447000C9447000C9447000C94730216
:100020000C9447000C9447000C9447000C94470034
:100030000C9447000C9447000C9447000C94470024
:100040000C9447000C9447000C9447000C94470014
:100050000C94470011241FBECFE5D8E0DEBFCDBF12
:1000600010E0A0E6B0E0EEEBF9E002C005900D92E2
:10007000A836B107D9F720E0A8E6B0E001C01D928C
:10008000A038B207E1F70E9428040C94DD040C9418
:1000900000006091610085E090E00C94D0046091D4
:1000A000600082E090E00C94D0048091710088237D
:1000B00061F080E00E94590280916C0061E090E064
:1000C0000E94F80210927100089580916F008823B9
:1000D00089F080916E00813131F460E080E00E940F
:1000E0003F0282E105C061E080E00E943F0281E1C1
:1000F00080936E0080E00E94510261E082E090E017
:100100000E94F80281E08093710008958091700050
:10011000882361F081E00E9459028091680061E0CB
:1001200090E00E94070310927000089580916B0088
:10013000882389F080916A00813131F460E081E0A8
:100140000E943F0282E105C061E081E00E943F021F
:1001500081E180936A0081E00E94510261E082E0C7
:1001600090E00E94070381E0809370000895CF9390
:1001700080E00E94C10380916100813109F440C098
:10018000A8F4803109F07EC061E080E090E00E9438
:10019000F8020E94490041E061E080E00E948E0385
:1001A00080E00E945902109271006AC0823109F405
:1001B00049C0833109F066C061E080E090E00E94B0
:1001C000F8020E94490080E00E94590241E068E084
:1001D00080E00E948E0360E080E00E943F0280E0A9
:1001E0000E94510261E082E090E00E94F80281E00A
:1001F0008093710080936F0082E180936E0042C013
:1002000061E080E090E00E94F8020E94490080E0F6
:100210000E94590241E062E080E00E948E0360E0AB
:1002200080E00E943F028BB3C1E08C278BBB80E053
:100230000E94510261E082E090E00E94F802C093C7
:1002400071001EC061E080E090E00E94F8020E9410
:10025000490080E00E94590241E064E080E00E9491
:100260008E0361E080E00E943F0280E00E94510224
:1002700061E082E090E00E94F80281E080937100EA
:1002800010926F00CF91089580E00E94C4036091A6
:100290006D00E62FF0E0EE59FF4F808180936C00F7
:1002A00084E090E00E94D00460916C0083E090E0D4
:1002B0000E94D00480917100811106C080916C0071
:1002C00060E090E00E94F80280916D00813049F07A
:1002D00028F0823049F0833051F0089541E060E128
:1002E00008C041E060E205C041E060E402C041E0D6
:1002F00060E880E00C948E0381E00E94C10380914D
:1003000060008131E1F018F4803139F008958231D4
:1003100039F1833109F445C0089561E080E090E04F
:100320000E9407030E944F0041E061E081E00E94CB
:100330008E0381E00E945902109270002FC061E08C
:1003400080E090E00E9407030E944F0081E00E943D
:10035000590241E062E081E00E948E0360E010C03B
:1003600061E080E090E00E9407030E944F0081E07E
:100370000E94590241E064E081E00E948E0361E046
:1003800081E00E943F0281E00E94510261E082E030
:1003900090E00E94070381E08093700010926B0050
:1003A000089561E080E090E00E9407030E944F0002
:1003B00081E00E94590241E068E081E00E948E03E2
:1003C00060E081E00E943F0281E00E94510261E012
:1003D00082E090E00E94070381E0809370008093A8
:1003E0006B0082E180936A00089581E00E94C4035B
:1003F00060916900E62FF0E0EE59FF4F8081809315
:10040000680081E090E00E94D0046091680080E084
:1004100090E00E94D00480917000811106C080910C
:10042000680060E090E00E940703809169008130DD
:1004300049F028F0823049F0833051F0089541E0CE
:1004400060E108C041E060E205C041E060E402C054
:1004500041E060E881E00C948E03BB9A8B9A8C9A01
:100460008F9A8E9A8D9A90E693BF83B7836083BFED
:100470001CBE95BD85B5846085BD13BC08958111F2
:1004800008C0611103C0939A94980895949A939820
:100490000895611103C0969A95980895959A969833
:1004A0000895811103C08AE58CBF08958AE583BD54
:1004B0000895811102C01CBE089513BC08950097D1
:1004C00041F0EFECF7E03197F1F700C00000019741
:1004D000F6CF0895009731F022E02A95F1F700C099
:1004E0000197F8CF08951F920F920FB60F92112423
:1004F0002F933F934F935F936F937F938F939F932C
:10050000AF93BF93EF93FF9380917C0090917D0018
:10051000019690937D0080937C002091780030912B
:1005200079002F5F3F4F3093790020937800CC976C
:10053000F1F49BB381E089278BBB80917A00909185
:100540007B00019690937B0080937A0010927D004F
:1005500010927C00209174003091750082179307EF
:1005600031F410927B0010927A000E945500809125
:10057000780090917900CC97D1F480917600909199
:10058000770001969093770080937600109279001F
:1005900010927800209172003091730082179307B7
:1005A00031F410927700109276000E9486001DBCF4
:1005B0001CBCFF91EF91BF91AF919F918F917F9163
:1005C0006F915F914F913F912F910F900FBE0F90C0
:1005D0001F90189588E08FBD84E08EBD80E189BFB3
:1005E0001DBC1CBC82E19AE79BBD8ABD789408952E
:1005F000613041F410927D0010927C0010927B00DB
:1006000010927A0090937500809374000895613081
:1006100041F41092790010927800109277001092B5
:100620007600909373008093720008954BB321E09D
:1006300030E0B90102C0660F771F8A95E2F7CB015F
:10064000462B4BBB9BB3809589238BBB08954BB343
:1006500021E030E0B90102C0660F771F8A95E2F70A
:10066000CB01462B4BBB91E09A95F1F79BB380955C
:1006700089238BBB0895EF92FF920F931F93CF9323
:10068000DF9300D0CDB7DEB7182FE1E0F0E0CF0167
:1006900002C0880F991F6A95E2F7082FE82EE094B0
:1006A00088E0F82E9BB317FF02C0902B01C09E215B
:1006B0009BBB842F2A8349830E941603110FFA944F
:1006C0002A814981F110EECF822F0F900F90DF9198
:1006D000CF911F910F91FF90EF900C942703CF9330
:1006E000811103C0C0917F0002C0C0917E0060955F
:1006F000C623811109C026E045E067E08C2F0E94E7
:100700003B03C0937F0008C022E041E063E08C2FF0
:100710000E943B03C0937E00CF910895CF93811137
:1007200003C090917F0002C090917E00413019F487
:10073000C92FC62B03C0C62FC095C923811109C07C
:1007400026E045E067E08C2F0E943B03C0937F00CA
:1007500008C022E041E063E08C2F0E943B03C0937D
:100760007E00CF91089526E045E067E080917F000C
:100770000E943B0322E041E063E080917E000C9404
:100780003B036FE00C946F0360EF0C946F031F93B7
:10079000CF93DF9326E045E067E08FEF0E943B03B5
:1007A00022E041E063E08FEF0E943B03C8E0DFEF0F
:1007B0001FEF84E690E00E945F021695DD0F26E0B1
:1007C00045E067E0812F0E943B0322E041E063E0C7
:1007D0008D2F0E943B03C15061F7DF91CF911F9194
:1007E0000895D79AD69AD59AD49AD39AD29AD19A6A
:1007F000D09A10927F0010927E000C94C703A098AC
:10080000A198A298A398089583B38170089583B3A3
:1008100080958170089583B38270089583B386951F
:10082000817091E08927089583B38470089583B31C
:1008300082FB882780F991E08927089583B3887027
:10084000089583B383FB882780F991E08927089571
:1008500085E090E00E94C8048093610084E090E00D
:100860000E94C80480936D0083E090E00E94C80459
:1008700080936C0082E090E00E94C8048093600046
:1008800081E090E00E94C8048093690080E090E0DD
:100890000E94C804809368000E942D020E94F10308
:1008A0000E94FF030E94EA020E9444010E94F50197
:1008B0000E94B7000E947C01C0E10E9407048823C7
:1008C000A1F08AEF90E00E945F020E940704882353
:1008D00061F0809161008F5F843119F08093610035
:1008E00002C0C09361000E94B7000E940E048823DA
:1008F000B9F08AEF90E00E945F020E940E04882304
:1009000079F0E0916D00EF5FE0936D00F0E0EE595B
:10091000FF4F8081811102C010926D000E9444013E
:100920000E9417048823A1F08AEF90E00E945F02E2
:100930000E941704882361F0809160008F5F8431EA
:1009400019F08093600002C0C09360000E947C0197
:100950000E9421048823B9F08AEF90E00E945F0290
:100960000E942104882379F0E0916900EF5FE09311
:100970006900F0E0EE59FF4F8081811102C01092B2
:1009800069000E94F50182E390E00E945F0295CF2A
:10099000E199FECF9FBB8EBBE09A99278DB3089556
:1009A000262FE199FECF9FBB8EBB2DBB0FB6F894CF
:0E09B000E29AE19A0FBE01960895F894FFCFE7
:0809BE0010100A16222E0000A1
:00000001FF
